:100000000C942A000C94501E0C94831E0C94B61E63
:100010000C9447000C9447000C9447000C94470044
:100020000C9447000C9447000C9447000C94470034
:100030000C9447000C9447000C9447000C94470024
:100040000C9447000C9447000C9447000C94470014
:100050000C94470011241FBECFE5D8E0DEBFCDBF12
:1000600011E0A0E6B0E0E8E0FCE402C005900D92EB
:10007000A63EB107D9F711E0A6EEB1E001C01D928E
:10008000AC3EB107E1F70E9417070C9402260C94CE
:100090000000EF92FF920F931F937B018C0120E0F1
:1000A00030E040E05FE40E94F50388238CF0C80153
:1000B000B70120E030E040E05FE40E94C1010E940F
:1000C00055049B01AC01205030404040504806C0D0
:1000D000C801B7010E9455049B01AC01B901CA01D6
:1000E0001F910F91FF90EF900895A0E0B0E0EBE733
:1000F000F0E00C94CB25DC012B01FA019C919230AD
:1001000008F439C1EB018881823008F433C194309E
:1001100069F4843009F02FC111969C91119789815F
:10012000981709F428C1A0E6B0E025C1843009F48D
:1001300021C18230A9F4923009F01DC19A01AD01AC
:1001400088E0EA010990AE01E90109929E0181501F
:10015000C1F7E201898111969C918923818308C1AD
:10016000923009F407C112962D903C901397EB0141
:100170008A819B811496AD90BD90CD90DC901797AD
:10018000EC80FD800E811F819101281B390BB90184
:1001900037FF04C066277727621B730B6032710537
:1001A0000CF061C0121613066CF537014801062EDB
:1001B00004C096948794779467940A94D2F721E0C8
:1001C00030E040E050E004C0220F331F441F551FB1
:1001D0006A95D2F721503040404050402E213F21B7
:1001E00040235123211531054105510521F021E01E
:1001F00030E040E050E079018A01E628F72808293C
:1002000019293CC0232BD1F1260E371E350146019A
:10021000062E04C096948794779467940A94D2F734
:1002200021E030E040E050E004C0220F331F441FC3
:10023000551F6A95D2F721503040404050402A2146
:100240003B214C215D21211531054105510521F04E
:1002500021E030E040E050E059016A01A628B728CB
:10026000C828D9280BC0821593052CF01C01AA249C
:10027000BB24650103C0EE24FF24870111969C91E5
:10028000D20111968C91981709F445C0992339F041
:10029000A80197012A193B094C095D0906C0A6016E
:1002A00095012E193F09400B510B57FD08C01182D3
:1002B0003382228224833583468357831DC081E0A5
:1002C00081833382228288279927DC01821B930B4A
:1002D000A40BB50B84839583A683B7830DC0220F2F
:1002E000331F441F551F24833583468357838281E0
:1002F000938101979383828324813581468157813D
:10030000DA01C9010197A109B1098F5F9F4FAF4F72
:10031000BF4328F30BC0918333822282EA0CFB1C7B
:100320000C1D1D1DE482F5820683178383E0808304
:10033000248135814681578157FF1AC0C901AA27F8
:1003400097FDA095BA2F81709070A070B0705695EF
:10035000479537952795822B932BA42BB52B848318
:100360009583A683B7838281938101969383828349
:10037000DF0101C0D201CD01CDB7DEB7E2E10C94BF
:10038000E725A0E2B0E0E7ECF1E00C94D725698323
:100390007A838B839C832D833E834F835887E9E048
:1003A000EE2EF12CEC0EFD1ECE010196B7010E943F
:1003B00046068E010F5E1F4FCE010596B8010E94C2
:1003C00046068A8991E089278A8BC701B801AE0168
:1003D000475E5F4F0E9475000E947105A096E6E09F
:1003E0000C94F325A0E2B0E0E8EFF1E00C94D725FF
:1003F00069837A838B839C832D833E834F835887C5
:10040000F9E0EF2EF12CEC0EFD1ECE010196B701A6
:100410000E9446068E010F5E1F4FCE010596B80161
:100420000E944606C701B801AE01475E5F4F0E94B9
:1004300075000E947105A096E6E00C94F325A0E2F9
:10044000B0E0E5E2F2E00C94CB2569837A838B83FC
:100450009C832D833E834F835887CE010196BE0136
:10046000675F7F4F0E944606CE010596BE016F5E14
:100470007F4F0E9446069985923088F089898230A4
:10048000C8F0943019F4823051F404C0843029F457
:10049000923081F480E690E0C6C0923049F420E0CA
:1004A0009A858A89981321E02A87CE010996BBC0D4
:1004B000823049F420E09A858A89981321E02A8BBA
:1004C000CE014196B0C02D843E844F8458886D88FB
:1004D0007E888F88988CEE24FF248701AA24BB2471
:1004E000650140E050E060E070E0E0E0F0E0C10174
:1004F00081709070892BE9F0E60CF71C081D191D1E
:100500009A01AB012A0D3B1D4C1D5D1D80E090E062
:10051000A0E0B0E0E614F7040805190520F481E036
:1005200090E0A0E0B0E0BA01A901480F591F6A1F8E
:100530007B1FAA0CBB1CCC1CDD1C97FE08C081E0F5
:1005400090E0A0E0B0E0A82AB92ACA2ADB2A3196B6
:10055000E032F10549F0660C771C881C991C569412
:10056000479437942794C3CFFA85EA892B893C892D
:100570008B859C85280F391F2E5F3F4F17C0CA01FE
:1005800081709070892B61F016950795F794E79428
:1005900080E090E0A0E0B0E8E82AF92A0A2B1B2BC3
:1005A00076956795579547952F5F3F4F77FDE7CF36
:1005B0000CC0440F551F661F771F17FD4160EE0CDE
:1005C000FF1C001F111F21503040403090E05907A0
:1005D00090E0690790E4790760F32B8F3C8FDB0193
:1005E000CA018F779070A070B07080349105A1051A
:1005F000B10561F447FD0AC0E114F10401051105DC
:1006000029F0405C5F4F6F4F7F4F40781A8EFE1786
:1006100011F081E08A8F4D8F5E8F6F8F78A383E01A
:10062000898FCE0149960E947105A096E2E10C9453
:10063000E725A8E1B0E0EFE1F3E00C94D32569836E
:100640007A838B839C832D833E834F835887B9E0C5
:10065000EB2EF12CEC0EFD1ECE010196B7010E948F
:1006600046068E010F5E1F4FCE010596B8010E940F
:1006700046062985223008F47EC03989323010F4CC
:10068000B8017CC08A859A8989278A87243011F02D
:10069000223031F4231709F06EC060E670E06EC0BE
:1006A000343039F41D861E861F86188A1C861B86E8
:1006B00004C0323021F484E08987B7015FC02B8504
:1006C0003C858B899C89281B390B3C872B87ED84C3
:1006D000FE840F851889AD88BE88CF88D88CEA142F
:1006E000FB040C051D0540F4EE0CFF1C001F111F40
:1006F000215030403C872B8720E030E040E050E044
:1007000080E090E0A0E0B0E460E070E0EA14FB0478
:100710000C051D0540F0282B392B4A2B5B2BEA18C2
:10072000FB080C091D09B695A79597958795EE0CC2
:10073000FF1C001F111F6F5F7F4F6F31710531F775
:10074000DA01C9018F779070A070B0708034910584
:10075000A105B10561F427FD0AC0E114F10401050A
:10076000110529F0205C3F4F4F4F5F4F20782D87B8
:100770003E874F87588BBE01675F7F4FCB010E943A
:1007800071056896EAE00C94EF25A8E1B0E0EBEC87
:10079000F3E00C94D72569837A838B839C832D8324
:1007A0003E834F83588789E0E82EF12CEC0EFD1E26
:1007B000CE010196B7010E9446068E010F5E1F4FC3
:1007C000CE010596B8010E9446068985823040F028
:1007D0008989823028F0C701B8010E94BE0601C095
:1007E0008FEF6896E6E00C94F325A8E1B0E0EBEF1C
:1007F000F3E00C94D72569837A838B839C832D83C4
:100800003E834F83588789E0E82EF12CEC0EFD1EC5
:10081000CE010196B7010E9446068E010F5E1F4F62
:10082000CE010596B8010E9446068985823040F0C7
:100830008989823028F0C701B8010E94BE0601C034
:100840008FEF6896E6E00C94F325A8E1B0E0EBE2C8
:10085000F4E00C94D72569837A838B839C832D8362
:100860003E834F83588789E0E82EF12CEC0EFD1E65
:10087000CE010196B7010E9446068E010F5E1F4F02
:10088000CE010596B8010E9446068985823040F067
:100890008989823028F0C701B8010E94BE0601C0D4
:1008A00081E06896E6E00C94F325ACE0B0E0EBE57F
:1008B000F4E00C94DB2569837A838B839C83CE01DF
:1008C0000196BE016B5F7F4F0E9446068D8182308C
:1008D00061F1823050F1843021F48E81882351F10E
:1008E0002EC02F81388537FD20C06E812F31310514
:1008F0001CF06623F9F023C08EE190E0821B930B7D
:1009000029853A854B855C8504C056954795379572
:1009100027958A95D2F76623B1F05095409530958A
:1009200021953F4F4F4F5F4F0EC020E030E040E039
:1009300050E009C02FEF3FEF4FEF5FE704C020E02A
:1009400030E040E050E8B901CA012C96E2E00C9496
:10095000F725A8E0B0E0EFEAF4E00C94D3257B01A2
:100960008C01611571058105910519F482E0898377
:1009700060C083E089838EE1C82ED12CDC82CB82DB
:10098000ED82FE820F831887C801B7010E942205FD
:10099000FC013197F7FF3BC0222733272E1B3F0B6B
:1009A00057016801022E04C0D694C794B794A79447
:1009B0000A94D2F740E050E060E070E081E090E01F
:1009C000A0E0B0E004C0880F991FAA1FBB1F2A95A2
:1009D000D2F70197A109B1098E219F21A023B1234C
:1009E0000097A105B10521F041E050E060E070E022
:1009F0004A295B296C297D294D835E836F83788723
:100A00008EE190E08E1B9F0B9C838B8312C03097EE
:100A100081F00E2E04C0EE0CFF1C001F111F0A9463
:100A2000D2F7ED82FE820F831887CE1ADF0ADC82AE
:100A3000CB821A82CE0101960E9471052896EAE0C7
:100A40000C94EF25EF92FF920F931F937B018C0183
:100A500080E0E81680E0F80681E0080780E01807EB
:100A600088F48FEFE816F1040105110531F028F044
:100A700088E090E0A0E0B0E017C080E090E0A0E067
:100A8000B0E012C080E0E81680E0F80680E00807D9
:100A900081E0180728F088E190E0A0E0B0E004C011
:100AA00080E190E0A0E0B0E020E230E040E050E003
:100AB000281B390B4A0B5B0B04C016950795F7945E
:100AC000E7948A95D2F7F701E859FF4F8081281BF8
:100AD000310941095109C9011F910F91FF90EF9010
:100AE0000895DF92EF92FF920F931F93FC01E48031
:100AF000F58006811781D1808081823048F480E0C2
:100B000090E0A0E1B0E0E82AF92A0A2B1B2BA5C04F
:100B1000843009F49FC0823021F4EE24FF24870141
:100B200005C0E114F1040105110519F4E0E0F0E05D
:100B300096C0628173819FEF623879070CF05BC0C9
:100B400022E83FEF261B370B2A3131052CF020E03D
:100B500030E040E050E02AC0B801A701022E04C0F6
:100B600076956795579547950A94D2F781E090E07E
:100B7000A0E0B0E004C0880F991FAA1FBB1F2A95F0
:100B8000D2F70197A109B1098E219F21A023B1239A
:100B90000097A105B10521F081E090E0A0E0B0E070
:100BA0009A01AB01282B392B4A2B5B2BDA01C901A7
:100BB0008F779070A070B07080349105A105B10559
:100BC00039F427FF09C0205C3F4F4F4F5F4F04C0EF
:100BD000215C3F4F4F4F5F4FE0E0F0E02030A0E05E
:100BE0003A07A0E04A07A0E45A0710F0E1E0F0E07D
:100BF00079018A0127C06038710564F5FB01E1586D
:100C0000FF4FD801C7018F779070A070B07080340B
:100C10009105A105B10539F4E7FE0DC080E490E02F
:100C2000A0E0B0E004C08FE390E0A0E0B0E0E80E08
:100C3000F91E0A1F1B1F17FF05C016950795F7948D
:100C4000E794319687E016950795F794E7948A958F
:100C5000D1F705C0EE24FF248701EFEFF0E06E2FFF
:100C6000679566276795902F9F77D794DD24D79453
:100C70008E2F8695492F462B582F5D29B701CA0123
:100C80001F910F91FF90EF90DF900895FC01DB0121
:100C9000408151812281622F6F7770E0221F2227CD
:100CA000221F9381892F880F822B282F30E0991FD4
:100CB0009927991F11969C93119721153105A9F534
:100CC000411551056105710511F482E037C082E8D4
:100CD0009FEF13969C938E9312979A01AB0167E056
:100CE000220F331F441F551F6A95D1F783E08C9361
:100CF0000DC0220F331F441F551F12968D919C91DA
:100D00001397019713969C938E931297203080E04F
:100D1000380780E0480780E4580758F314962D936D
:100D20003D934D935C93179708952F3F310579F4C8
:100D3000411551056105710519F484E08C930895FE
:100D400064FF03C081E08C9312C01C9210C02F5727
:100D5000304013963C932E93129783E08C9387E058
:100D6000440F551F661F771F8A95D1F7706414963C
:100D70004D935D936D937C93179708951F93DC01BA
:100D8000FB019C91923008F447C08081823008F4C6
:100D900043C0943051F411961C91843099F58181AF
:100DA000682F70E0611B71093FC0843021F09230E0
:100DB00031F48230B9F18181882389F12DC01196F7
:100DC0001C9111978230F1F081811817D9F4129695
:100DD0002D913C911397828193818217930794F010
:100DE00028173907BCF014968D919D910D90BC91F8
:100DF000A02D2481358146815781281739074A075C
:100E00005B0718F4112341F00AC082179307A40767
:100E1000B50740F4112319F061E070E005C06FEFF1
:100E20007FEF02C060E070E0CB011F910895DF9377
:100E3000CF93CDB7DEB72F970FB6F894DEBF0FBEB6
:100E4000CDBF0E94F50B80E062E30E94CB1180E0F1
:100E500090E0AAEFB3E48B879C87AD87BE876B8554
:100E60007C858D859E8520E030E04AEF54E40E9429
:100E70001F02DC01CB018F839887A987BA876F8116
:100E8000788589859A8520E030E040E85FE30E941C
:100E9000250488232CF481E090E09E838D833FC05D
:100EA0006F81788589859A8520E03FEF4FE757E489
:100EB0000E94C50318164CF56B857C858D859E8533
:100EC00020E030E040E251E40E941F02DC01CB014F
:100ED000BC01CD010E944900DC01CB019E838D83C2
:100EE0000FC088EC90E09C838B838B819C81019761
:100EF000F1F79C838B838D819E8101979E838D83E7
:100F00008D819E81009769F714C06F8178858985EE
:100F10009A850E944900DC01CB019E838D838D81DF
:100F20009E819A83898389819A810197F1F79A83B7
:100F300089839E01215F3F4F80E0B9010E946412C6
:100F40008F85823329F480E061E00E94430D04C064
:100F500080E060E00E94430DFFCFDF93CF93CDB7D9
:100F6000DEB72C970FB6F894DEBF0FBECDBF6987F2
:100F70007A878B879C8769857A858B859C8520E01D
:100F800034E244EF5AE40E941F02DC01CB01BC01B1
:100F9000CD0120E030E048E453E40E941903DC0175
:100FA000CB018D839E83AF83B88780E090E0A0E083
:100FB000B0E089839A83AB83BC8310C069817A8156
:100FC0008B819C8120E030E040E85FE30E94F201E9
:100FD000DC01CB0189839A83AB83BC8369817A81ED
:100FE0008B819C812D813E814F8158850E942504F3
:100FF000882324F32C960FB6F894DEBF0FBECDBF26
:10100000CF91DF910895DF93CF9300D000D00F925E
:10101000CDB7DEB781E08B831A826DC18A81282F1C
:1010200030E0C90182959295907F9827807F98271C
:10103000820F931FFC01E858FE4F80818823A9F09E
:101040008A81282F30E0C90182959295907F982758
:10105000807F9827820F931FFC01E858FE4F808104
:10106000813019F084E08B834AC119823AC18A81A8
:10107000282F30E08981882F90E0AC01440F551F64
:10108000C90182959295907F9827807F9827820F3B
:10109000931F840F951FFC01E859FE4F8081843017
:1010A00018F082E08B8321C18A81282F30E089816A
:1010B000882F90E0AC01440F551FC901829592958D
:1010C000907F9827807F9827820F931F840F951F0A
:1010D000FC01E759FE4F8081883018F083E08B8354
:1010E00004C11B828A81282F30E0C9018295929524
:1010F000907F9827807F9827820F931FFC01E858E4
:10110000FE4F8081282F30E03D832C838C819D8190
:10111000009709F475C02C813D812130310509F01B
:10112000DDC089818630B1F18A81282F30E0898144
:10113000882F90E0AC01440F551FC901829592950C
:10114000907F9827807F9827820F931F840F951F89
:10115000FC01E859FE4F60818A81282F30E08981A7
:10116000882F90E0AC01440F551FC90182959295DC
:10117000907F9827807F9827820F931F840F951F59
:10118000FC01E759FE4F9081862F692F40E00E94B5
:10119000E91EA4C08A81282F30E08981882F90E041
:1011A000AC01440F551FC90182959295907F9827F5
:1011B000807F9827820F931F840F951FFC01E859A9
:1011C000FE4F60818A81282F30E08981882F90E04E
:1011D000AC01440F551FC90182959295907F9827C5
:1011E000807F9827820F931F840F951FFC01E7597A
:1011F000FE4F9081862F692F41E00E94E91E6EC04C
:1012000089818630B1F18A81282F30E08981882F49
:1012100090E0AC01440F551FC90182959295907FD3
:101220009827807F9827820F931F840F951FFC01BA
:10123000E859FE4F60818A81282F30E08981882F0C
:1012400090E0AC01440F551FC90182959295907FA3
:101250009827807F9827820F931F840F951FFC018A
:10126000E759FE4F9081862F692F41E00E94E91EC9
:1012700035C08A81282F30E08981882F90E0AC0129
:10128000440F551FC90182959295907F9827807FC2
:101290009827820F931F840F951FFC01E859FE4F7A
:1012A00060818A81282F30E08981882F90E0AC010D
:1012B000440F551FC90182959295907F9827807F92
:1012C0009827820F931F840F951FFC01E759FE4F4B
:1012D0009081862F692F40E00E94E91E89818F5FEF
:1012E00089838981883008F4C2CE8B81882339F4C0
:1012F0008A818F5F8A838A81882309F48FCE8B81CC
:101300000F900F900F900F900F90CF91DF91089555
:10131000DF93CF93CDB7DEB765970FB6F894DEBFF6
:101320000FBECDBF8D876E8781E08A839E012D5FC2
:101330003F4F3A8B298B8CED91E09C8B8B8B9AE005
:101340009D8BEB89FC8900802B893C892F5F3F4F67
:101350003C8B2B8BE989FA89008229893A892F5F96
:101360003F4F3A8B298B3D8931503D8B8D898823A6
:1013700041F78D85882319F085E08A83D5C08E8555
:101380008A3018F086E08A83CFC01A828D85282F94
:1013900030E0C90182959295907F9827807F9827A9
:1013A000820F931FFC01E858FE4F8081E82FF0E088
:1013B000F88BEF872F8538892115310509F45CC03A
:1013C0008F8598898130910509F0AEC019824FC090
:1013D0008D85282F30E08981882F90E0AC01440F63
:1013E000551FC90182959295907F9827807F9827F5
:1013F000820F931F840F951FFC01E859FE4F6081F7
:101400008D85282F30E08981882F90E0AC01440F32
:10141000551FC90182959295907F9827807F9827C4
:10142000820F931F840F951FFC01E759FE4F4081E7
:101430008E85282F30E0CE010396FC01E20FF31FCA
:101440008081282F30E08981882F90E0F90102C047
:10145000F595E7958A95E2F7CF01982F9170862F41
:10146000642F492F0E94702389818F5F898389812E
:10147000883008F4ADCF58C0198252C08D85282F0E
:1014800030E08981882F90E0AC01440F551FC901DD
:1014900082959295907F9827807F9827820F931F3F
:1014A000840F951FFC01E859FE4F60818D85282F20
:1014B00030E08981882F90E0AC01440F551FC901AD
:1014C00082959295907F9827807F9827820F931F0F
:1014D000840F951FFC01E759FE4F40818E85282F10
:1014E00030E0CE010396FC01E20FF31F8081882FCC
:1014F00090E09C01209530958981882F90E0F9013A
:1015000002C0F595E7958A95E2F7CF01982F917083
:10151000862F642F492F0E94702389818F5F8983D2
:101520008981883008F4AACF8A8165960FB6F8942D
:10153000DEBF0FBECDBFCF91DF910895DF93CF9374
:10154000CDB7DEB727970FB6F894DEBF0FBECDBF7D
:101550009F838E8381E08D838E819F819C838B838B
:101560001A8219820DC08A818F5F8A838E819F8142
:101570002AE030E0B9010E948225CB019F838E834F
:101580008E819F81009779F78A81823080F086E092
:101590008D83198207C0898160E00E948809898152
:1015A0008F5F898399818A819817A8F320C01D8253
:1015B000198219C08B819C812AE030E0B9010E9418
:1015C0008225982F8981692F0E9488098B819C81AF
:1015D0002AE030E0B9010E948225CB019C838B83F5
:1015E00089818F5F898399818A81981718F38D810A
:1015F00027960FB6F894DEBF0FBECDBFCF91DF9117
:101600000895DF93CF9300D000D0CDB7DEB781E04F
:101610008A8319829AC08981282F30E0C901880FF6
:10162000991F820F931FFC01E758FE4F8081843081
:1016300018F082E08A8386C08981282F30E0C901B2
:10164000880F991F820F931FFC01E658FE4F80817F
:10165000883018F083E08A8375C08981282F30E0B4
:10166000C901880F991F820F931FFC01E558FE4F97
:101670008081882389F08981282F30E0C901880F73
:10168000991F820F931FFC01E558FE4F8081813026
:1016900019F084E08A8356C01A828981282F30E0AD
:1016A000C901880F991F820F931FFC01E558FE4F57
:1016B0008081282F30E03C832B838B819C81009795
:1016C00031F02B813C8121303105F9F03BC089811B
:1016D000282F30E0C901880F991F820F931FFC014A
:1016E000E758FE4F40818981282F30E0C901880FDB
:1016F000991F820F931FFC01E658FE4F9081842FA3
:10170000692F42E00E94E91E1DC08981282F30E028
:10171000C901880F991F820F931FFC01E758FE4FE4
:1017200040818981282F30E0C901880F991F820FDD
:10173000931FFC01E658FE4F9081842F692F43E0F0
:101740000E94E91E89818F5F89838981882309F43A
:1017500062CF8A810F900F900F900F90CF91DF9101
:101760000895DF93CF9300D000D00F92CDB7DEB7AE
:101770008B837D836C8381E08A8381E089838C8184
:101780009D81009719F485E08A8326C01A828B8197
:10179000282F30E0C901880F991F820F931FFC0189
:1017A000E758FE4F40818B81282F30E0C901880F18
:1017B000991F820F931FFC01E658FE4F90812C81E8
:1017C0003D81842F692FA9010E94E42489838981A6
:1017D000882311F081E08A838A810F900F900F9007
:1017E0000F900F90CF91DF910895DF93CF9300D0AA
:1017F000CDB7DEB781E08A8319823BC18981882F0A
:1018000090E0880F991F880F991FFC01E458FE4F44
:101810008081843018F082E08A8328C18981882FF2
:1018200090E0880F991F880F991FFC01E358FE4F25
:101830008081883018F083E08A8318C18981882FDD
:1018400090E0880F991F0196880F991FFC01E458BA
:10185000FE4F8081882389F08981882F90E0880F4E
:10186000991F0196880F991FFC01E458FE4F808153
:10187000813019F084E08A83F9C08981882F90E053
:10188000880F991F880F991FFC01E158FE4F808136
:10189000813081F08981882F90E0880F991F880F0F
:1018A000991FFC01E158FE4F8081882319F085E0E3
:1018B0008A83DCC01A828981882F90E0880F991F63
:1018C0000196880F991FFC01E458FE4F8081882300
:1018D00049F58981882F90E0880F991F880F991FFB
:1018E000FC01E158FE4F80818823E1F48981882F33
:1018F00090E0880F991F880F991FFC01E458FE4F54
:1019000020818981882F90E0880F991F880F991F67
:10191000FC01E358FE4F9081822F692F40E00E9426
:10192000E91EA4C08981882F90E0880F991F019635
:10193000880F991FFC01E458FE4F8081882349F5E8
:101940008981882F90E0880F991F880F991FFC01CB
:10195000E158FE4F80818130E1F48981882F90E049
:10196000880F991F880F991FFC01E458FE4F2081B2
:101970008981882F90E0880F991F880F991FFC019B
:10198000E358FE4F9081822F692F41E00E94E91EAB
:101990006DC08981882F90E0880F991F0196880F6C
:1019A000991FFC01E458FE4F8081813049F58981FF
:1019B000882F90E0880F991F880F991FFC01E1582C
:1019C000FE4F80818823E1F48981882F90E0880F81
:1019D000991F880F991FFC01E458FE4F20818981CF
:1019E000882F90E0880F991F880F991FFC01E358FA
:1019F000FE4F9081822F692F41E00E94E91E36C080
:101A00008981882F90E0880F991F0196880F991F70
:101A1000FC01E458FE4F8081813041F58981882F97
:101A200090E0880F991F880F991FFC01E158FE4F25
:101A300080818130D9F48981882F90E0880F991FA7
:101A4000880F991FFC01E458FE4F20818981882F5F
:101A500090E0880F991F880F991FFC01E358FE4FF3
:101A60009081822F692F40E00E94E91E89818F5F5B
:101A700089838981882309F4C1CE8A810F900F90D0
:101A8000CF91DF910895DF93CF93CDB7DEB729973C
:101A90000FB6F894DEBF0FBECDBF8A836B8381E0A3
:101AA00089838B81813031F08B81882319F085E027
:101AB0008983A7C08A81882F90E0880F991F01969B
:101AC000880F991FFC01E458FE4F8081282F30E0D9
:101AD0003987288788859985009739F02885398541
:101AE0002130310509F448C08CC08B81282F30E0AB
:101AF0003F832E838E819F81009711F12E813F813C
:101B00002130310509F07DC08A81882F90E0880F4F
:101B1000991F880F991FFC01E458FE4F20818A818C
:101B2000882F90E0880F991F880F991FFC01E358B8
:101B3000FE4F9081822F692F41E00E94702361C087
:101B40008A81882F90E0880F991F880F991FFC01C8
:101B5000E458FE4F20818A81882F90E0880F991FDA
:101B6000880F991FFC01E358FE4F9081822F692F47
:101B700040E00E94702345C08B81282F30E03D83D8
:101B80002C838C819D81009709F12C813D8121302E
:101B90003105B9F58A81882F90E0880F991F880F49
:101BA000991FFC01E458FE4F20818A81882F90E024
:101BB000880F991F880F991FFC01E358FE4F9081F1
:101BC000822F692F40E00E9470231BC08A81882FDA
:101BD00090E0880F991F880F991FFC01E458FE4F71
:101BE00020818A81882F90E0880F991F880F991F84
:101BF000FC01E358FE4F9081822F692F41E00E9443
:101C00007023898129960FB6F894DEBF0FBECDBF31
:101C1000CF91DF910895DF93CF9300D000D0CDB75F
:101C2000DEB78C8381E08B83809192019091930148
:101C3000692F41E00E94702387E08A8329C08A814E
:101C4000882F90E0880F991FFC01E058FE4F5081CB
:101C50008A81882F90E0880F991FFC01EF57FE4F73
:101C600040818C81282F30E08A81882F90E0B90153
:101C700002C0759567958A95E2F7CB01982F917010
:101C8000852F642F492F0E9470238A8181508A8377
:101C90008A818430A0F60E947E1087E089832AC062
:101CA0008981882F90E0880F991FFC01E058FE4F32
:101CB00050818981882F90E0880F991FFC01EF5790
:101CC000FE4F40818C81282F30E08981882F90E061
:101CD0000497B90102C0759567958A95E2F7CB0123
:101CE000982F9170852F642F492F0E94702389812E
:101CF000815089838981843098F60E947E108B817F
:101D00000F900F900F900F90CF91DF910895DF9378
:101D1000CF9300D000D0CDB7DEB78C8381E08B832A
:101D20008091920190919301692F40E00E9470236D
:101D300087E08A8329C08A81882F90E0880F991FC5
:101D4000FC01E058FE4F50818A81882F90E0880F77
:101D5000991FFC01EF57FE4F40818C81282F30E006
:101D60008A81882F90E0B90102C0759567958A95A0
:101D7000E2F7CB01982F9170852F642F492F0E9495
:101D800070238A8181508A838A818430A0F60E94E0
:101D90007E1087E089832AC08981882F90E0880F90
:101DA000991FFC01E058FE4F50818981882F90E0F7
:101DB000880F991FFC01EF57FE4F40818C81282F1F
:101DC00030E08981882F90E00497B90102C07595B1
:101DD00067958A95E2F7CB01982F9170852F642F34
:101DE000492F0E94702389818150898389818430A1
:101DF00098F60E947E108B810F900F900F900F909D
:101E0000CF91DF910895DF93CF930F92CDB7DEB7D7
:101E100084E089831AC08981882F90E0880F991FF8
:101E2000FC01E058FE4F20818981882F90E0880FC7
:101E3000991FFC01EF57FE4F9081822F692F40E0E0
:101E40000E94E91E89818F5F89838981883018F318
:101E50008091900190919101692F40E00E94E91ECC
:101E60008091920190919301692F40E00E94E91EB8
:101E70006DEC7CEC8CE49DE30E94AD0782E00E9457
:101E8000870E6AE077ED83E29CE30E94AD0788E26B
:101E90000E94870E6DEC7CEC8CE49DE30E94AD0704
:101EA0008CE00E94870E6DEC7CEC8CE49DE30E943C
:101EB000AD0781E00E94870E6FE672E183E09BE34D
:101EC0000E94AD0786E00E94870E6FE672E183E014
:101ED0009BE30E94AD070F90CF91DF910895DF93B0
:101EE000CF9300D000D000D0CDB7DEB78B836C830A
:101EF00081E08A8319828B81833018F48C8181314F
:101F000018F084E08A831CC01A828B81282F30E06D
:101F10003E832D838D819E818130910531F02D810D
:101F20003E812230310529F007C08C8181508983A0
:101F300003C08C81815C8983898180580E94870ECF
:101F40008A8126960FB6F894DEBF0FBECDBFCF9123
:101F5000DF910895DF93CF93CDB7DEB72C970FB6FF
:101F6000F894DEBF0FBECDBF9C878B8781E08D8349
:101F70001D821C828B859C859B838A831DC08C81DE
:101F8000E82FF0E08A819B812AE030E0B9010E94CD
:101F90008225282FCE010696E80FF91F20838C8119
:101FA0008F5F8C838A819B812AE030E0B9010E9497
:101FB0008225CB019B838A838A819B810097F9F6D6
:101FC0008C81898312C08981882F90E09C012150E7
:101FD0003040CE010696FC01E20FF31F8081805D48
:101FE0000E940B0E8981815089838981882359F74A
:101FF0008D812C960FB6F894DEBF0FBECDBFCF916A
:10200000DF910895DF93CF9300D000D00F92CDB72A
:10201000DEB79C838B836D8381E08A8319820EC037
:102020008981282F30E08B819C81FC01E20FF31F16
:1020300080810E940B0E89818F5F898399818D81B8
:10204000981770F38A810F900F900F900F900F9058
:10205000CF91DF910895DF93CF93CDB7DEB7289767
:102060000FB6F894DEBF0FBECDBF9D838C836E8309
:102070004F83288781E08B838F81833018F4888594
:10208000813118F084E08B832FC08E81893018F065
:1020900086E08B8329C01B828E81882F90E0880F79
:1020A000991F880F991F880F991F8A838A81805CE6
:1020B0000E94870E19820EC08981282F30E08C8102
:1020C0009D81FC01E20FF31F80810E940B0E89812C
:1020D0008F5F89838981883078F38F8168850E943A
:1020E0006F0F8E810E940B0E8B8128960FB6F8948D
:1020F000DEBF0FBECDBFCF91DF910895DF93CF93A9
:10210000CDB7DEB78091900190919101692F41E0A8
:102110000E9470236AE077ED83E29CE30E94AD07A2
:102120008091900190919101692F40E00E9470236D
:102130006AE077ED83EA9CE30E94AD07CF91DF91DF
:102140000895DF93CF9300D0CDB7DEB781E08A83C7
:10215000198260C08981282F30E0C901880F991F3A
:10216000820F931FFC01EC56FE4F8081843018F0E3
:1021700082E08A834CC08981282F30E0C901880F12
:10218000991F820F931FFC01EB56FE4F8081883010
:1021900018F083E08A833BC08981282F30E0C90191
:1021A000880F991F820F931FFC01EA56FE4F808112
:1021B000843018F084E08A832AC01A828981282F0B
:1021C00030E0C901880F991F820F931FFC01EC5664
:1021D000FE4F50818981282F30E0C901880F991F57
:1021E000820F931FFC01EB56FE4F40818981282FFF
:1021F00030E0C901880F991F820F931FFC01EA5636
:10220000FE4F9081852F642F492F0E94E91E8981FE
:102210008F5F89838981883008F49CCF8A810F90F1
:102220000F90CF91DF910895DF93CF9300D000D02E
:1022300000D0CDB7DEB79E838D8381E08B838D8107
:102240009E81009719F485E08B839BC01B8281E0FF
:102250008C83ED81FE818FEF80831A828EC08A810C
:10226000882F90E09C012C5F3F4FC901880F991F78
:10227000820F931FFC01EC56FE4F40818A81882F0C
:1022800090E09C012C5F3F4FC901880F991F820F7E
:10229000931FFC01EB56FE4F9081842F692F40E085
:1022A0000E94702319823BC08981282F30E0C90128
:1022B000880F991F820F931FFC01EC56FE4F40813F
:1022C0008981282F30E0C901880F991F820F931F41
:1022D000FC01EB56FE4F90819E012C5F3F4F842FF7
:1022E000692FA9010E94E4248C818823A9F48A81A2
:1022F000482F50E08981282F30E0CA01880F991FAC
:10230000880F991F820F931FFC01E455FE4F8081B7
:10231000ED81FE81808306C089818F5F89838981F9
:10232000843010F2ED81FE8180818F3F51F58A81EA
:10233000882F90E09C012C5F3F4FC901880F991FA7
:10234000820F931FFC01EC56FE4F40818A81882F3B
:1023500090E09C012C5F3F4FC901880F991F820FAD
:10236000931FFC01EB56FE4F9081842F692F41E0B3
:102370000E9470238A818F5F8A838A81843008F467
:102380006ECF8B8126960FB6F894DEBF0FBECDBF01
:10239000CF91DF910895DF93CF93CDB7DEB76097EC
:1023A0000FB6F894DEBF0FBECDBF8F87688B80E578
:1023B00093EC0E94FF1980E090E0AAEFB3E48B87D2
:1023C0009C87AD87BE876B857C858D859E8520E04B
:1023D00030E04AEF54E40E941F02DC01CB018F83FE
:1023E0009887A987BA876F81788589859A8520E043
:1023F00030E040E85FE30E94250488232CF481E06C
:1024000090E09E838D833FC06F81788589859A8512
:1024100020E03FEF4FE757E40E94C50318164CF544
:102420006B857C858D859E8520E030E040E251E41F
:102430000E941F02DC01CB01BC01CD010E944900BA
:10244000DC01CB019E838D830FC088EC90E09C83E0
:102450008B838B819C810197F1F79C838B838D818A
:102460009E8101979E838D838D819E81009769F760
:1024700014C06F81788589859A850E944900DC01A6
:10248000CB019E838D838D819E819A8389838981EF
:102490009A810197F1F79A8389830E94521A80E505
:1024A00060E00E94491B8F850E94DE1A88890E9485
:1024B000DE1A0E94B81A60960FB6F894DEBF0FBEFF
:1024C000CDBFCF91DF910895DF93CF9300D00F92CE
:1024D000CDB7DEB789837B836A830E94521A80E579
:1024E00060E00E94491B89810E94DE1A0E94851CBF
:1024F00080E561E00E94491B8A819B810E94601DEA
:102500000E94B81A0F900F900F90CF91DF9108950D
:10251000DF93CF9300D000D0CDB7DEB78C8381E0BE
:1025200090E09B838A83198209C08A819B81880FEE
:10253000991F9B838A8389818F5F898399818C818D
:10254000981798F38A819B810F900F900F900F90AE
:10255000CF91DF910895DF93CF9300D0CDB7DEB751
:10256000EFE4F0E080818A83EEE4F0E0808189830B
:102570001A828A8181608A8319828981886089832D
:10258000EFE4F0E08A818083EEE4F0E089818083EB
:10259000A9E5B0E0E9E5F0E0808180618C93A9E5F0
:1025A000B0E0E9E5F0E0808188608C93A9E5B0E0D7
:1025B000E9E5F0E0808184608C930F900F90CF91DB
:1025C000DF910895DF93CF930F92CDB7DEB7EEE49E
:1025D000F0E0808189831982898182608983EEE4B9
:1025E000F0E0898180830F90CF91DF910895DF9390
:1025F000CF93CDB7DEB72E970FB6F894DEBF0FBEE0
:10260000CDBF8B836C834D832E8383E06B8140E051
:102610000E94E91E1A8219828C81853039F08C81E2
:10262000863021F08C81873009F0E6C08C81282F1C
:1026300030E03E872D874D855E854630510589F017
:102640008D859E858730910599F02D853E852530B5
:102650003105A1F488E00E94881201979A8389834A
:102660000DC089E00E94881201979A83898306C071
:102670008AE00E94881201979A8389838B81482F70
:1026800050E05C874B878B859C858430910509F4ED
:102690005FC02B853C852530310509F0ADC0AFE426
:1026A000B0E0EFE4F0E08081282F8E81882F90E069
:1026B0000024969587950794969587950794982F6B
:1026C000802D822B8C938E81482F50E05A8749872A
:1026D00089859A858230910519F129853A852330BB
:1026E000310509F089C0EAE4F0E08D81282F30E05F
:1026F00084E690E0821B930B9C0189819A81AC0156
:10270000249FC001259F900D349F900D112424E635
:1027100030E0B9010E948225CB01918380836CC097
:10272000EAE4F0E08D81282F30E089819A81AC01C4
:10273000249FC001259F900D349F900D112424E605
:1027400030E0B9010E948225CB019183808354C07F
:10275000AFE4B0E0EFE4F0E08081282F8E81882F95
:1027600090E082959295907F9827807F9827822B82
:102770008C938E81282F30E038872F834F815885A6
:102780004230510511F18F81988583309105A1F573
:10279000E8E4F0E08D81282F30E084E690E0821BB1
:1027A000930B9C0189819A81AC01249FC001259FD4
:1027B000900D349F900D112424E630E0B9010E9461
:1027C0008225CB019183808317C0E8E4F0E08D81FE
:1027D000282F30E089819A81AC01249FC001259F78
:1027E000900D349F900D112424E630E0B9010E9431
:1027F0008225CB01918380832E960FB6F894DEBF9D
:102800000FBECDBFCF91DF910895DF93CF93CDB7AA
:10281000DEB72E970FB6F894DEBF0FBECDBF8B8309
:102820006C834D832E8383E06B8140E00E94E91E20
:102830001A8219828C81813039F08C81823021F0AA
:102840008C81833009F0E6C08C81282F30E03E87F0
:102850002D874D855E854230510589F08D859E8599
:102860008330910599F02D853E8521303105A1F405
:1028700088E00E94881201979A8389830DC089E0BD
:102880000E94881201979A83898306C08AE00E9479
:10289000881201979A8389838B81482F50E05C8747
:1028A0004B878B859C858430910509F45FC02B850F
:1028B0003C852530310509F0ADC0AFE4B0E0EFE470
:1028C000F0E08081282F8E81882F90E0002496955B
:1028D00087950794969587950794982F802D822B3E
:1028E0008C938E81482F50E05A87498789859A8535
:1028F0008230910519F129853A852330310509F097
:1029000089C0EAE4F0E08D81282F30E084E690E091
:10291000821B930B9C0189819A81AC01249FC00189
:10292000259F900D349F900D112424E630E0B901CD
:102930000E948225CB01918380836CC0EAE4F0E0A1
:102940008D81282F30E089819A81AC01249FC001BC
:10295000259F900D349F900D112424E630E0B9019D
:102960000E948225CB019183808354C0AFE4B0E004
:10297000EFE4F0E08081282F8E81882F90E082950F
:102980009295907F9827807F9827822B8C938E81B9
:10299000282F30E038872F834F81588542305105EA
:1029A00011F18F81988583309105A1F5E8E4F0E07D
:1029B0008D81282F30E084E690E0821B930B9C01F0
:1029C00089819A81AC01249FC001259F900D349F7D
:1029D000900D112424E630E0B9010E948225CB013C
:1029E0009183808317C0E8E4F0E08D81282F30E0E8
:1029F00089819A81AC01249FC001259F900D349F4D
:102A0000900D112424E630E0B9010E948225CB010B
:102A1000918380832E960FB6F894DEBF0FBECDBF94
:102A2000CF91DF910895DF93CF93CDB7DEB7A3E5C4
:102A3000B0E0E3E5F0E0808180648C93A9E5B0E04C
:102A4000E9E5F0E0808182608C93A9E5B0E0E9E5FA
:102A5000F0E0808181608C93CF91DF910895DF93C6
:102A6000CF93CDB7DEB7A3E5B0E0E3E5F0E080813A
:102A700082608C93CF91DF910895DF93CF9300D044
:102A800000D000D0CDB7DEB78B836C8381E08A8322
:102A90008B81853618F083E08A8353C08C81833024
:102AA00031F08C81823019F085E08A834AC01A8225
:102AB00081E063E040E00E94E91EECE5F0E0108276
:102AC000E3E5F0E08081898389818F7C89838C8133
:102AD000282F30E03E832D838D819E8182309105A9
:102AE000B9F02D813E812330310539F5898180632C
:102AF0008983ECE5F0E08B81882F90E0982F882780
:102B000024E630E0B9010E949625CB01808315C0F0
:102B1000898180628983ECE5F0E08B81282F30E0A9
:102B200081E090E0821B930B982F882724E630E009
:102B3000B9010E949625CB018083E3E5F0E089810D
:102B400080838A8126960FB6F894DEBF0FBECDBF74
:102B5000CF91DF910895DF93CF9300D000D000D0C4
:102B6000CDB7DEB78B836C8381E08A838B8185361A
:102B700018F083E08A8353C08C81833031F08C81DC
:102B8000823019F085E08A834AC01A8281E063E0CE
:102B900040E00E94E91EECE5F0E01082E3E5F0E0A1
:102BA0008081898389818F7C89838C81282F30E083
:102BB0003E832D838D819E8182309105B9F02D81D8
:102BC0003E812330310539F5898180638983ECE5C5
:102BD000F0E08B81882F90E0982F882724E630E062
:102BE000B9010E949625CB01808315C0898180623E
:102BF0008983ECE5F0E08B81282F30E084E690E0DB
:102C0000821B930B982F882724E630E0B9010E949D
:102C10009625CB018083E3E5F0E0898180838A817A
:102C200026960FB6F894DEBF0FBECDBFCF91DF91D1
:102C30000895DF93CF93CDB7DEB760970FB6F894C2
:102C4000DEBF0FBECDBF1A82198238C289819A8138
:102C5000988B8F872F85388933232CF48F8598891B
:102C60000796988B8F878F859889959587959595E9
:102C70008795959587958C8389819A8128E030E0A6
:102C8000B9010E9496258B838C81282F30E03E87E6
:102C90002D878D859E858130910509F494C02D8501
:102CA0003E85223031052CF48D859E85009771F08C
:102CB00000C22D853E852230310509F401C18D8584
:102CC0009E858330910509F478C1F3C189819A8189
:102CD000FC01E454FE4F8081282F30E03C872B8795
:102CE0008B859C858130910591F12B853C85223027
:102CF000310509F454C08B859C85009709F0D9C132
:102D0000AAE3B0E0EAE3F0E08081482F8B81282F2E
:102D100030E081E090E002C0880F991F2A95E2F729
:102D2000809584238C93ABE3B0E0EBE3F0E080810B
:102D3000482F8B81282F30E081E090E0022E02C0E6
:102D4000880F991F0A94E2F7842B8C93B2C1AAE3EF
:102D5000B0E0EAE3F0E08081482F8B81282F30E05B
:102D600081E090E002C0880F991F2A95E2F78095D4
:102D700084238C93ABE3B0E0EBE3F0E08081482F59
:102D80008B81282F30E081E090E0022E02C0880F76
:102D9000991F0A94E2F7809584238C938AC1AAE351
:102DA000B0E0EAE3F0E08081482F8B81282F30E00B
:102DB00081E090E0022E02C0880F991F0A94E2F78A
:102DC000842B8C9376C189819A81FC01E454FE4F57
:102DD0008081282F30E03A87298789859A8581303C
:102DE000910591F129853A852230310509F454C0C5
:102DF00089859A85009709F05CC1A7E3B0E0E7E315
:102E0000F0E08081482F8B81282F30E081E090E036
:102E100002C0880F991F2A95E2F7809584238C932E
:102E2000A8E3B0E0E8E3F0E08081482F8B81282F11
:102E300030E081E090E0022E02C0880F991F0A94D2
:102E4000E2F7842B8C9335C1A7E3B0E0E7E3F0E031
:102E50008081482F8B81282F30E081E090E002C0F4
:102E6000880F991F2A95E2F7809584238C93A8E315
:102E7000B0E0E8E3F0E08081482F8B81282F30E03C
:102E800081E090E0022E02C0880F991F0A94E2F7B9
:102E9000809584238C930DC1A7E3B0E0E7E3F0E0D5
:102EA0008081482F8B81282F30E081E090E0022E36
:102EB00002C0880F991F0A94E2F7842B8C93F9C003
:102EC00089819A81FC01E454FE4F8081282F30E0F3
:102ED00038872F838F8198858130910591F12F81DB
:102EE00038852230310509F454C08F8198850097C8
:102EF00009F0DFC0A4E3B0E0E4E3F0E08081482F14
:102F00008B81282F30E081E090E002C0880F991F6C
:102F10002A95E2F7809584238C93A5E3B0E0E5E35E
:102F2000F0E08081482F8B81282F30E081E090E015
:102F3000022E02C0880F991F0A94E2F7842B8C930B
:102F4000B8C0A4E3B0E0E4E3F0E08081482F8B81D7
:102F5000282F30E081E090E002C0880F991F2A9569
:102F6000E2F7809584238C93A5E3B0E0E5E3F0E0FD
:102F70008081482F8B81282F30E081E090E0022E65
:102F800002C0880F991F0A94E2F7809584238C93DE
:102F900090C0A4E3B0E0E4E3F0E08081482F8B81AF
:102FA000282F30E081E090E0022E02C0880F991FA8
:102FB0000A94E2F7842B8C937CC089819A81FC016E
:102FC000E454FE4F8081282F30E03E832D838D8195
:102FD0009E818130910591F12D813E812230310514
:102FE00009F454C08D819E81009709F062C0A1E36D
:102FF000B0E0E1E3F0E08081482F8B81282F30E0C2
:1030000081E090E002C0880F991F2A95E2F7809531
:1030100084238C93A2E3B0E0E2E3F0E08081482FC8
:103020008B81282F30E081E090E0022E02C0880FD3
:10303000991F0A94E2F7842B8C933BC0A1E3B0E084
:10304000E1E3F0E08081482F8B81282F30E081E0A0
:1030500090E002C0880F991F2A95E2F7809584239B
:103060008C93A2E3B0E0E2E3F0E08081482F8B8113
:10307000282F30E081E090E0022E02C0880F991FD7
:103080000A94E2F7809584238C9313C0A1E3B0E007
:10309000E1E3F0E08081482F8B81282F30E081E050
:1030A00090E0022E02C0880F991F0A94E2F7842B49
:1030B0008C9389819A8101969A83898389819A81E7
:1030C000803291050CF4C2CD60960FB6F894DEBF45
:1030D0000FBECDBFCF91DF910895DF93CF93CDB7D2
:1030E000DEB7EFE4F0E01082E8E5F0E080E2808314
:1030F000AEE4B0E0EEE4F0E0808180688C93AEE472
:10310000B0E0EEE4F0E080818C93AEE4B0E0EEE479
:10311000F0E0808182608C93CF91DF910895DF93FE
:10312000CF93CDB7DEB7A9E5B0E0E9E5F0E0808167
:1031300080628C93CF91DF910895DF93CF93CDB7C9
:10314000DEB7E9E5F0E0A9E5B0E08C918083CF91AE
:10315000DF910895DF93CF9300D00F92CDB7DEB704
:1031600089838981282F30E03B832A838A819B8150
:103170008034910569F02A813B812F3B310579F438
:10318000AEE4B0E0EEE4F0E080818F7B8C9307C08A
:10319000AEE4B0E0EEE4F0E0808180648C930F90C8
:1031A0000F900F90CF91DF910895DF93CF9300D0D0
:1031B000CDB7DEB79A83898389819A81009741F0E0
:1031C000E6E4F0E080819181E981FA819183808356
:1031D0000F900F90CF91DF910895EF92FF920F9390
:1031E0001F93DF93CF93CDB7DEB72E970FB6F8942A
:1031F000DEBF0FBECDBF9C878B877E876D871E820B
:103200001D8218861F821A8619861C821B821A82CA
:103210001982E8E5F0E080E2808380E40E94AA1849
:10322000E8E5F0E08081882F90E080729070009750
:10323000B9F3CE0105960E94D518A8E5B0E0E8E5FF
:10324000F0E0808180628C938FEB0E94AA18E8E501
:10325000F0E08081882F90E0807290700097B9F341
:10326000CE0107960E94D518A8E5B0E0E8E5F0E0A9
:10327000808180628C9380E40E94AA18E8E5F0E0E7
:103280008081882F90E0807290700097B9F3CE0112
:1032900009960E94D518A8E5B0E0E8E5F0E0808145
:1032A00080628C932D813E818F8198852817390704
:1032B00008F06DC02F81388589859A8528173907D0
:1032C00008F065C02F8138858D819E81A901481B3A
:1032D000590BCA019C838B8329853A858D819E81F8
:1032E000A901481B590BCA019A8389838B819C8150
:1032F000CC01A0E0B0E0BC01CD010E94A9047B019B
:103300008C0189819A81CC01A0E0B0E0BC01CD01A3
:103310000E94A9049B01AC01C801B7010E941903D6
:10332000DC01CB01BC01CD0120E030E048EC52E4EF
:103330000E941F02DC01CB01BC01CD010E944900AB
:10334000DC01CB01EB85FC859183808389819A81A7
:10335000CC01A0E0B0E0880F991FAA1FBB1F880F07
:10336000991FAA1FBB1F880F991FAA1FBB1F9C0173
:10337000AD0180E092E1AAE7B0E0BC01CD010E947E
:10338000A925DA01C901ED85FE85918380832E96FA
:103390000FB6F894DEBF0FBECDBFCF91DF911F9166
:1033A0000F91FF90EF900895DF93CF9300D000D05E
:1033B000CDB7DEB78B836C8381E090E09A838983FD
:1033C00012C08B81282F30E089819A81AC01429F05
:1033D000C001439F900D529F900D11249A838983C1
:1033E0008C8181508C838C81882359F789819A81C3
:1033F0000F900F900F900F90CF91DF910895CF9283
:10340000DF92EF92FF920F931F93DF93CF9300D041
:103410000F92CDB7DEB79B838A831982E1E2F0E099
:103420001082CC24DD246894C5F88A819B819C019C
:1034300040E050E080E092E1AAE7B0E0BC01CD01BD
:103440000E94A925DA01C9010F2EF0EFEF2EFFEF40
:10345000FF2EFFEF0F2FFFEF1F2FF02DE80EF91EAD
:103460000A1F1B1F84E060E00E94D419880F991F77
:103470009C01442737FD4095542FC801B7010E9495
:10348000A925DA01C901F601808389810F900F9087
:103490000F90CF91DF911F910F91FF90EF90DF90F0
:1034A000CF900895DF93CF93CDB7DEB72A970FB6AD
:1034B000F894DEBF0FBECDBF198280E593ECA0E08B
:1034C000B0E08A839B83AC83BD83E6E5F0E084EAC9
:1034D00080838A819B81AC81BD818F839887A987F6
:1034E000BA871E828F819885A985BA850097A10524
:1034F000B10511F091E09E838F819885A985BA85E9
:103500000197A109B1098A839B83AC83BD8381E0C4
:10351000AE818A27882361F4E6E5F0E08081881F88
:103520008827881F882F90E0BFEF8F3F9B0789F681
:103530008A819B81AC81BD810097A105B10511F401
:1035400083E08983E1E2F0E08081882F90E0887F4A
:1035500090708830910511F082E0898389812A96E4
:103560000FB6F894DEBF0FBECDBFCF91DF910895A7
:10357000DF93CF93CDB7DEB7E6E5F0E084E9808353
:10358000CF91DF910895DF93CF9300D00F92CDB705
:10359000DEB78A836B8319828A81823840F4E2E243
:1035A000F0E08A81982F990F8B81890F8083898120
:1035B0000F900F900F90CF91DF910895DF93CF93ED
:1035C000CDB7DEB72B970FB6F894DEBF0FBECDBFD9
:1035D0008E83198280E593ECA0E0B0E08A839B8320
:1035E000AC83BD83E3E2F0E08E818083E6E5F0E02A
:1035F00084E880838A819B81AC81BD81888799879B
:10360000AA87BB871F8288859985AA85BB85009775
:10361000A105B10511F091E09F8388859985AA8560
:10362000BB850197A109B1098A839B83AC83BD83C4
:1036300081E0AF818A27882361F4E6E5F0E08081AC
:10364000881F8827881F882F90E0BFEF8F3F9B0738
:1036500089F68A819B81AC81BD810097A105B10566
:1036600011F483E08983E1E2F0E08081882F90E02B
:10367000887F90708832910511F082E0898389817A
:103680002B960FB6F894DEBF0FBECDBFCF91DF9162
:103690000895DF93CF93CDB7DEB72C970FB6F8948C
:1036A000DEBF0FBECDBF8E836F8319828E818238BD
:1036B00018F085E0898359C080E593ECA0E0B0E084
:1036C0008A839B83AC83BD83E3E2F0E08E81982FF5
:1036D000990F8F81890F8083E6E5F0E084E880838D
:1036E0008A819B81AC81BD8189879A87AB87BC87A2
:1036F000188689859A85AB85BC850097A105B1059B
:1037000011F091E0988789859A85AB85BC850197F2
:10371000A109B1098A839B83AC83BD8381E0A8851D
:103720008A27882361F4E6E5F0E08081881F8827F6
:10373000881F882F90E0BFEF8F3F9B0789F68A8113
:103740009B81AC81BD810097A105B10511F483E097
:103750008983E1E2F0E08081882F90E0887F90709B
:103760008831910511F082E0898389812C960FB60A
:10377000F894DEBF0FBECDBFCF91DF910895DF93E8
:10378000CF93CDB7DEB765970FB6F894DEBF0FBE07
:10379000CDBF9B878A8719828A859B85009719F4FC
:1037A00086E08983A8C080E593ECA0E0B0E08A833E
:1037B0009B83AC83BD83E6E5F0E084EC80838A8163
:1037C0009B81AC81BD818A8B9B8BAC8BBD8B198A15
:1037D0008A899B89AC89BD890097A105B10511F043
:1037E00091E0998B8A899B89AC89BD890197A10950
:1037F000B1098A839B83AC83BD8381E0A9898A2731
:10380000882361F4E6E5F0E08081881F8827881F1F
:10381000882F90E0BFEF8F3F9B0789F68A819B81BD
:10382000AC81BD810097A105B10511F483E08983C6
:10383000E1E2F0E08081882F90E0887F9070803610
:10384000910511F082E0898380E593ECA0E0B0E07F
:103850008E839F83A887B987E6E5F0E084EC8083B8
:103860008E819F81A885B9858D879E87AF87B88B0C
:103870001C868D859E85AF85B8890097A105B10509
:1038800011F091E09C878D859E85AF85B889019761
:10389000A109B1098E839F83A887B98781E0AC8590
:1038A0008A27882361F4E6E5F0E08081881F882775
:1038B000881F882F90E0BFEF8F3F9B0789F68E818E
:1038C0009F81A885B9850097A105B10511F483E012
:1038D0008983E1E2F0E08081882F90E0887F90701A
:1038E0008038910511F082E08983E3E2F0E0808185
:1038F000EA85FB858083898165960FB6F894DEBFE3
:103900000FBECDBFCF91DF910895DF93CF93CDB799
:10391000DEB72A970FB6F894DEBF0FBECDBF19826F
:1039200080E593ECA0E0B0E08A839B83AC83BD8309
:10393000E6E5F0E084EA80838A819B81AC81BD81E9
:103940008F839887A987BA871E828F819885A985DA
:10395000BA850097A105B10511F091E09E838F8192
:103960009885A985BA850197A109B1098A839B83A6
:10397000AC83BD8381E0AE818A27882361F4E6E5CC
:10398000F0E08081881F8827881F882F90E0BFEF94
:103990008F3F9B0789F68A819B81AC81BD8100970F
:1039A000A105B10511F483E08983E1E2F0E08081B3
:1039B000882F90E0887F90708031910511F082E02F
:1039C000898389812A960FB6F894DEBF0FBECDBFDA
:1039D000CF91DF910895DF93CF93CDB7DEB72C97CA
:1039E0000FB6F894DEBF0FBECDBF9F838E831982C2
:1039F0008E819F81009719F486E0898357C080E506
:103A000093ECA0E0B0E08A839B83AC83BD83E6E5C2
:103A1000F0E084EC80838A819B81AC81BD818987C1
:103A20009A87AB87BC87188689859A85AB85BC85C4
:103A30000097A105B10511F091E0988789859A85D5
:103A4000AB85BC850197A109B1098A839B83AC83AF
:103A5000BD8381E0A8858A27882361F4E6E5F0E04C
:103A60008081881F8827881F882F90E0BFEF8F3FB5
:103A70009B0789F68A819B81AC81BD810097A10556
:103A8000B10511F483E08983E1E2F0E08081882FC1
:103A900090E0887F90708035910511F082E08983F5
:103AA000E3E2F0E08081EE81FF81808389812C96C2
:103AB0000FB6F894DEBF0FBECDBFCF91DF91089552
:103AC000DF93CF93CDB7DEB72C970FB6F894DEBF58
:103AD0000FBECDBF9F838E8319828E819F810097F9
:103AE00019F486E0898357C080E593ECA0E0B0E04C
:103AF0008A839B83AC83BD83E6E5F0E084E8808322
:103B00008A819B81AC81BD8189879A87AB87BC877D
:103B1000188689859A85AB85BC850097A105B10576
:103B200011F091E0988789859A85AB85BC850197CE
:103B3000A109B1098A839B83AC83BD8381E0A885F9
:103B40008A27882361F4E6E5F0E08081881F8827D2
:103B5000881F882F90E0BFEF8F3F9B0789F68A81EF
:103B60009B81AC81BD810097A105B10511F483E073
:103B70008983E1E2F0E08081882F90E0887F907077
:103B80008835910511F082E08983E3E2F0E08081DD
:103B9000EE81FF81808389812C960FB6F894DEBF79
:103BA0000FBECDBFCF91DF910895DF93CF9300D0AB
:103BB000CDB7DEB7AFE5B0E0EFE5F0E0808180683B
:103BC0008C93ABE5B0E0EBE5F0E0808180648C9312
:103BD000ABE5B0E0EBE5F0E0808180688C93ABE58D
:103BE000B0E0EBE5F0E0808180628C93E5E5F0E009
:103BF00080818A838A818C7F8A838A8182608A839A
:103C0000E5E5F0E08A818083E5E5F0E08081898365
:103C10008981837F8983898183608983A4E5B0E07A
:103C2000E4E5F0E0808180648C930F900F90CF9159
:103C3000DF910895DF93CF9300D0CDB7DEB79A839D
:103C4000898389819A819093E7018093E6010F909F
:103C50000F90CF91DF910895DF93CF9300D0CDB730
:103C6000DEB79A83898389819A819093E901809351
:103C7000E8010F900F90CF91DF910895DF93CF93DC
:103C800000D0CDB7DEB79A83898389819A819093DA
:103C9000EB018093EA010F900F90CF91DF9108958F
:103CA0001F920F920FB60F9211242F933F934F93B1
:103CB0005F936F937F938F939F93AF93BF93EF9394
:103CC000FF93DF93CF93CDB7DEB78091E60190915C
:103CD000E701009729F0E091E601F091E7010995ED
:103CE000CF91DF91FF91EF91BF91AF919F918F9114
:103CF0007F916F915F914F913F912F910F900FBEE8
:103D00000F901F9018951F920F920FB60F921124CB
:103D10002F933F934F935F936F937F938F939F93D3
:103D2000AF93BF93EF93FF93DF93CF93CDB7DEB7FE
:103D30008091E8019091E901009729F0E091E80174
:103D4000F091E9010995CF91DF91FF91EF91BF913A
:103D5000AF919F918F917F916F915F914F913F9123
:103D60002F910F900FBE0F901F9018951F920F92DA
:103D70000FB60F9211242F933F934F935F936F933E
:103D80007F938F939F93AF93BF93EF93FF93DF93B3
:103D9000CF93CDB7DEB78091EA019091EB01009708
:103DA00029F0E091EA01F091EB010995CF91DF91C3
:103DB000FF91EF91BF91AF919F918F917F916F9103
:103DC0005F914F913F912F910F900FBE0F901F90D9
:103DD0001895DF93CF93CDB7DEB72E970FB6F89433
:103DE000DEBF0FBECDBF8A836B834C8381E08983A6
:103DF0008A81843018F083E0898326C38B818830E0
:103E000018F084E0898320C38C81843018F085E029
:103E100089831AC319828A81282F30E03E872D8733
:103E20008D859E858130910509F4D5C02D853E850F
:103E3000223031052CF48D859E85009771F004C3E6
:103E40002D853E852230310509F483C18D859E85FF
:103E50008330910509F43BC2F7C28C81282F30E0F2
:103E60003C872B878B859C858130910509F43EC06A
:103E70002B853C85223031052CF48B859C85009761
:103E800071F0E2C22B853C852230310509F454C023
:103E90008B859C858330910509F475C0D5C2AAE352
:103EA000B0E0EAE3F0E08081482F8B81282F30E0FA
:103EB00081E090E002C0880F991F2A95E2F7842BD9
:103EC0008C93ABE3B0E0EBE3F0E08081482F8B8193
:103ED000282F30E081E090E0022E02C0880F991F69
:103EE0000A94E2F7809584238C93AEC2AAE3B0E0F3
:103EF000EAE3F0E08081482F8B81282F30E081E0D9
:103F000090E002C0880F991F2A95E2F7842B8C93CA
:103F1000ABE3B0E0EBE3F0E08081482F8B81282F0A
:103F200030E081E090E0022E02C0880F991F0A94D1
:103F3000E2F7842B8C9388C2AAE3B0E0EAE3F0E0D6
:103F40008081482F8B81282F30E081E090E002C0F3
:103F5000880F991F2A95E2F7809584238C93ABE311
:103F6000B0E0EBE3F0E08081482F8B81282F30E038
:103F700081E090E0022E02C0880F991F0A94E2F7B8
:103F8000842B8C9361C2AAE3B0E0EAE3F0E0808185
:103F9000482F8B81282F30E081E090E002C0880F0D
:103FA000991F2A95E2F7809584238C93ABE3B0E0C8
:103FB000EBE3F0E08081482F8B81282F30E081E017
:103FC00090E0022E02C0880F991F0A94E2F78095B4
:103FD00084238C9339C28C81282F30E03A8729873B
:103FE00089859A858130910509F43EC029853A85F5
:103FF000223031052CF489859A85009771F024C20E
:1040000029853A852230310509F454C089859A857D
:104010008330910509F475C017C2A7E3B0E0E7E368
:10402000F0E08081482F8B81282F30E081E090E004
:1040300002C0880F991F2A95E2F7842B8C93A8E37E
:10404000B0E0E8E3F0E08081482F8B81282F30E05A
:1040500081E090E0022E02C0880F991F0A94E2F7D7
:10406000809584238C93F0C1A7E3B0E0E7E3F0E010
:104070008081482F8B81282F30E081E090E002C0C2
:10408000880F991F2A95E2F7842B8C93A8E3B0E060
:10409000E8E3F0E08081482F8B81282F30E081E039
:1040A00090E0022E02C0880F991F0A94E2F7842B39
:1040B0008C93CAC1A7E3B0E0E7E3F0E08081482F2A
:1040C0008B81282F30E081E090E002C0880F991F9B
:1040D0002A95E2F7809584238C93A8E3B0E0E8E387
:1040E000F0E08081482F8B81282F30E081E090E044
:1040F000022E02C0880F991F0A94E2F7842B8C933A
:10410000A3C1A7E3B0E0E7E3F0E08081482F8B8113
:10411000282F30E081E090E002C0880F991F2A9597
:10412000E2F7809584238C93A8E3B0E0E8E3F0E025
:104130008081482F8B81282F30E081E090E0022E93
:1041400002C0880F991F0A94E2F7809584238C930C
:104150007BC18C81282F30E038872F838F81988511
:104160008130910509F43EC02F8138852230310518
:104170002CF48F819885009771F066C12F81388566
:104180002230310509F454C08F8198858330910520
:1041900009F475C059C1A4E3B0E0E4E3F0E0808124
:1041A000482F8B81282F30E081E090E002C0880FFB
:1041B000991F2A95E2F7842B8C93A5E3B0E0E5E301
:1041C000F0E08081482F8B81282F30E081E090E063
:1041D000022E02C0880F991F0A94E2F7809584236B
:1041E0008C9332C1A4E3B0E0E4E3F0E08081482F97
:1041F0008B81282F30E081E090E002C0880F991F6A
:104200002A95E2F7842B8C93A5E3B0E0E5E3F0E098
:104210008081482F8B81282F30E081E090E0022EB2
:1042200002C0880F991F0A94E2F7842B8C930CC16B
:10423000A4E3B0E0E4E3F0E08081482F8B81282FF5
:1042400030E081E090E002C0880F991F2A95E2F7E4
:10425000809584238C93A5E3B0E0E5E3F0E08081D2
:10426000482F8B81282F30E081E090E0022E02C0A1
:10427000880F991F0A94E2F7842B8C93E5C0A4E37E
:10428000B0E0E4E3F0E08081482F8B81282F30E01C
:1042900081E090E002C0880F991F2A95E2F780958F
:1042A00084238C93A5E3B0E0E5E3F0E08081482F20
:1042B0008B81282F30E081E090E0022E02C0880F31
:1042C000991F0A94E2F7809584238C93BDC08C815A
:1042D000282F30E03E832D838D819E818130910592
:1042E00009F43EC02D813E81223031052CF48D81B0
:1042F0009E81009771F0A8C02D813E81223031054A
:1043000009F454C08D819E818330910509F475C0F4
:104310009BC0A1E3B0E0E1E3F0E08081482F8B8116
:10432000282F30E081E090E002C0880F991F2A9585
:10433000E2F7842B8C93A2E3B0E0E2E3F0E080812B
:10434000482F8B81282F30E081E090E0022E02C0C0
:10435000880F991F0A94E2F7809584238C9374C088
:10436000A1E3B0E0E1E3F0E08081482F8B81282FCA
:1043700030E081E090E002C0880F991F2A95E2F7B3
:10438000842B8C93A2E3B0E0E2E3F0E08081482F3D
:104390008B81282F30E081E090E0022E02C0880F50
:1043A000991F0A94E2F7842B8C934EC0A1E3B0E0EE
:1043B000E1E3F0E08081482F8B81282F30E081E01D
:1043C00090E002C0880F991F2A95E2F78095842318
:1043D0008C93A2E3B0E0E2E3F0E08081482F8B8190
:1043E000282F30E081E090E0022E02C0880F991F54
:1043F0000A94E2F7842B8C9327C0A1E3B0E0E1E3B9
:10440000F0E08081482F8B81282F30E081E090E020
:1044100002C0880F991F2A95E2F7809584238C9318
:10442000A2E3B0E0E2E3F0E08081482F8B81282F07
:1044300030E081E090E0022E02C0880F991F0A94BC
:10444000E2F7809584238C9389812E960FB6F89499
:10445000DEBF0FBECDBFCF91DF910895DF93CF9325
:10446000CDB7DEB72D970FB6F894DEBF0FBECDBF28
:104470008A836B8381E089838A81843018F083E0AA
:10448000898324C18B81843018F085E089831EC123
:1044900019828A81282F30E03D872C878C859D8565
:1044A0008130910509F456C02C853D8522303105B7
:1044B0002CF48C859D85009771F008C12C853D8575
:1044C0002230310509F485C08C859D8583309105A6
:1044D00009F4BEC0FBC08B81282F30E03B872A87C0
:1044E0008A859B8581309105E9F02A853B852230BC
:1044F00031052CF48A859B85009761F0E7C02A85F9
:104500003B8522303105B9F08A859B858330910542
:10451000D1F0DCC0EAE3F0E08FEF8083EBE3F0E082
:104520001082D4C0EAE3F0E08FEF8083EBE3F0E0A9
:104530008FEF8083CBC0EAE3F0E01082EBE3F0E0A2
:104540008FEF8083C3C0EAE3F0E01082EBE3F0E09A
:104550001082BCC08B81282F30E03987288788855E
:10456000998581309105E9F028853985223031051A
:104570002CF488859985009761F0A8C02885398535
:1045800022303105B9F08885998583309105D1F0C5
:104590009DC0E7E3F0E08FEF8083E8E3F0E0108276
:1045A00095C0E7E3F0E08FEF8083E8E3F0E08FEF82
:1045B00080838CC0E7E3F0E01082E8E3F0E08FEF67
:1045C000808384C0E7E3F0E01082E8E3F0E010824B
:1045D0007DC08B81282F30E03F832E838E819F8189
:1045E00081309105E9F02E813F81223031052CF494
:1045F0008E819F81009761F069C02E813F812230BA
:104600003105B9F08E819F8183309105D1F05EC074
:10461000E4E3F0E08FEF8083E5E3F0E0108256C042
:10462000E4E3F0E08FEF8083E5E3F0E08FEF808359
:104630004DC0E4E3F0E01082E5E3F0E08FEF80832B
:1046400045C0E4E3F0E01082E5E3F0E010823EC014
:104650008B81282F30E03D832C838C819D8181309C
:104660009105E9F02C813D81223031052CF48C81BB
:104670009D81009761F02AC02C813D812230310557
:10468000B9F08C819D8183309105D1F01FC0E1E3A9
:10469000F0E08FEF8083E2E3F0E0108217C0E1E307
:1046A000F0E08FEF8083E2E3F0E08FEF80830EC0D5
:1046B000E1E3F0E01082E2E3F0E08FEF808306C0F8
:1046C000E1E3F0E01082E2E3F0E0108289812D96D0
:1046D0000FB6F894DEBF0FBECDBFCF91DF91089526
:1046E000DF93CF93CDB7DEB72E970FB6F894DEBF2A
:1046F0000FBECDBF8A836B834C8381E089838A811F
:10470000843018F083E0898308C18B81883018F0E9
:1047100084E0898302C119828A81282F30E03E8794
:104720002D878D859E858130910509F44FC02D859B
:104730003E85223031052CF48D859E85009771F0E1
:10474000ECC02D853E852230310509F477C08D857A
:104750009E858330910509F4A9C0DFC08C81282F84
:1047600030E03C872B878B859C85009731F02B852B
:104770003C8521303105B1F0D0C0ABE3B0E0EBE3D4
:10478000F0E08081482F8B81282F30E081E090E09D
:10479000022E02C0880F991F0A94E2F780958423A5
:1047A0008C93BBC0ABE3B0E0EBE3F0E08081482F3B
:1047B0008B81282F30E081E090E0022E02C0880F2C
:1047C000991F0A94E2F7842B8C93A7C08C81282F21
:1047D00030E03A87298789859A85009731F02985C5
:1047E0003A8521303105B1F098C0A8E3B0E0E8E3A4
:1047F000F0E08081482F8B81282F30E081E090E02D
:10480000022E02C0880F991F0A94E2F78095842334
:104810008C9383C0A8E3B0E0E8E3F0E08081482F08
:104820008B81282F30E081E090E0022E02C0880FBB
:10483000991F0A94E2F7842B8C936FC08C81282FE8
:1048400030E038872F838F819885009731F02F8152
:10485000388521303105B1F060C0A5E3B0E0E5E373
:10486000F0E08081482F8B81282F30E081E090E0BC
:10487000022E02C0880F991F0A94E2F780958423C4
:104880008C934BC0A5E3B0E0E5E3F0E08081482FD6
:104890008B81282F30E081E090E0022E02C0880F4B
:1048A000991F0A94E2F7842B8C9337C08C81282FB0
:1048B00030E03E832D838D819E81009731F02D81E4
:1048C0003E8121303105B1F028C0A2E3B0E0E2E33F
:1048D000F0E08081482F8B81282F30E081E090E04C
:1048E000022E02C0880F991F0A94E2F78095842354
:1048F0008C9313C0A2E3B0E0E2E3F0E08081482FA4
:104900008B81282F30E081E090E0022E02C0880FDA
:10491000991F0A94E2F7842B8C9389812E960FB607
:10492000F894DEBF0FBECDBFCF91DF910895DF9326
:10493000CF9300D000D00F92CDB7DEB78A836B83C0
:1049400081E089838A81843018F083E0898333C0D1
:1049500019828A81282F30E03D832C838C819D81B0
:1049600081309105D1F02C813D81223031052CF42C
:104970008C819D81009761F01EC02C813D81223089
:10498000310581F08C819D818330910581F013C0C8
:10499000EBE3F0E08B8180830EC0E8E3F0E08B81F5
:1049A000808309C0E5E3F0E08B81808304C0E2E30B
:1049B000F0E08B81808389810F900F900F900F9092
:1049C0000F90CF91DF910895DF93CF93CDB7DEB7EE
:1049D00027970FB6F894DEBF0FBECDBF8A836B83D7
:1049E0005D834C8381E089838A81843018F083E081
:1049F00089837EC08B81883018F084E0898378C0F9
:104A00008C819D81009719F482E0898371C019829D
:104A10008A81282F30E03F832E834E815F81413091
:104A2000510559F18E819F818230910534F42E8198
:104A30003F812115310569F05BC04E815F814230B5
:104A4000510579F18E819F818330910509F43DC034
:104A50004FC0E9E3F0E08081282F30E08B81882F80
:104A600090E0A90102C0559547958A95E2F7CA01E1
:104A70008170EC81FD8180833BC0E6E3F0E08081C2
:104A8000282F30E08B81882F90E0A90102C0559536
:104A900047958A95E2F7CA018170EC81FD81808398
:104AA00027C0E3E3F0E08081282F30E08B81882F5E
:104AB00090E0A90102C0559547958A95E2F7CA0191
:104AC0008170EC81FD81808313C0E0E3F0E08081A0
:104AD000282F30E08B81882F90E0A90102C05595E6
:104AE00047958A95E2F7CA018170EC81FD81808348
:104AF000898127960FB6F894DEBF0FBECDBFCF9148
:104B0000DF910895AA1BBB1B51E107C0AA1FBB1F61
:104B1000A617B70710F0A61BB70B881F991F5A9549
:104B2000A9F780959095BC01CD01089597FB092EBA
:104B300007260AD077FD04D0E5DF06D000201AF45E
:104B4000709561957F4F0895F6F7909581959F4FE9
:104B50000895A1E21A2EAA1BBB1BFD010DC0AA1FBE
:104B6000BB1FEE1FFF1FA217B307E407F50720F0D6
:104B7000A21BB30BE40BF50B661F771F881F991F51
:104B80001A9469F760957095809590959B01AC019A
:104B9000BD01CF0108952F923F924F925F926F9285
:104BA0007F928F929F92AF92BF92CF92DF92EF92BD
:104BB000FF920F931F93CF93DF93CDB7DEB7CA1B3E
:104BC000DB0B0FB6F894DEBF0FBECDBF09942A8869
:104BD000398848885F846E847D848C849B84AA8411
:104BE000B984C884DF80EE80FD800C811B81AA819E
:104BF000B981CE0FD11D0FB6F894DEBF0FBECDBF69
:084C0000ED010895F894FFCFC7
:104C0800000000000000000000010202030303038B
:104C18000404040404040404050505050505050544
:104C28000505050505050505060606060606060624
:104C3800060606060606060606060606060606060C
:104C480006060606060606060707070707070707F4
:104C580007070707070707070707070707070707DC
:104C680007070707070707070707070707070707CC
:104C780007070707070707070707070707070707BC
:104C880007070707070707070808080808080808A4
:104C9800080808080808080808080808080808088C
:104CA800080808080808080808080808080808087C
:104CB800080808080808080808080808080808086C
:104CC800080808080808080808080808080808085C
:104CD800080808080808080808080808080808084C
:104CE800080808080808080808080808080808083C
:104CF800080808080808080808080808080808082C
:104D0800080808080808080802000201020202034D
:104D18000204020502060207010302000100000066
:104D2800000000000000000002040205020602075D
:104D38000300030100000200010200020200030256
:104D48000004010005010006010007013738392F6A
:104D58003435362A3132332D4E303D2B02020202D1
:104D6800020202020202020202020202020202021B
:104D7800020202020202020202020202C0F9A4B006
:064D8800999282F8809070
:00000001FF
